{
  "address": "0xCf7Ed3AccA5a467e9e704C703E8D87F634fB0Fc9",
  "abi": [
    {
      "inputs": [],
      "stateMutability": "nonpayable",
      "type": "constructor"
    },
    {
      "anonymous": false,
      "inputs": [
        {
          "indexed": false,
          "internalType": "uint256",
          "name": "newValue",
          "type": "uint256"
        }
      ],
      "name": "ValueChange",
      "type": "event"
    },
    {
      "inputs": [],
      "name": "increment",
      "outputs": [
        {
          "internalType": "uint256",
          "name": "",
          "type": "uint256"
        }
      ],
      "stateMutability": "nonpayable",
      "type": "function"
    },
    {
      "inputs": [],
      "name": "retrieve",
      "outputs": [
        {
          "internalType": "uint256",
          "name": "",
          "type": "uint256"
        }
      ],
      "stateMutability": "view",
      "type": "function"
    },
    {
      "inputs": [
        {
          "internalType": "uint256",
          "name": "newValue",
          "type": "uint256"
        }
      ],
      "name": "store",
      "outputs": [],
      "stateMutability": "nonpayable",
      "type": "function"
    },
    {
      "inputs": [],
      "name": "version",
      "outputs": [
        {
          "internalType": "uint256",
          "name": "",
          "type": "uint256"
        }
      ],
      "stateMutability": "pure",
      "type": "function"
    }
  ],
  "transactionHash": "0x52f5460f860953eeae76da2d26da4681c868d44f87f1c45a77f5966ceaf9b434",
  "args": [],
  "numDeployments": 1,
  "solcInputHash": "76581009fc30dd2bb8f67421561d7861",
  "bytecode": "0x608060405234801561001057600080fd5b506102ba806100206000396000f3fe608060405234801561001057600080fd5b506004361061004c5760003560e01c80632e64cec11461005157806354fd4d501461006f5780636057361d1461008d578063d09de08a146100a9575b600080fd5b6100596100c7565b6040516100669190610186565b60405180910390f35b6100776100d0565b6040516100849190610186565b60405180910390f35b6100a760048036038101906100a291906101d2565b6100d9565b005b6100b161011a565b6040516100be9190610186565b60405180910390f35b60008054905090565b60006002905090565b806000819055507fa08786470df18dce77f2c3a12acf2022fd1ff8b97fe62396a54ee458dcebef048160405161010f9190610186565b60405180910390a150565b6000600160005461012b919061022e565b6000819055507fa08786470df18dce77f2c3a12acf2022fd1ff8b97fe62396a54ee458dcebef046000546040516101629190610186565b60405180910390a190565b6000819050919050565b6101808161016d565b82525050565b600060208201905061019b6000830184610177565b92915050565b600080fd5b6101af8161016d565b81146101ba57600080fd5b50565b6000813590506101cc816101a6565b92915050565b6000602082840312156101e8576101e76101a1565b5b60006101f6848285016101bd565b91505092915050565b7f4e487b7100000000000000000000000000000000000000000000000000000000600052601160045260246000fd5b60006102398261016d565b91506102448361016d565b9250827fffffffffffffffffffffffffffffffffffffffffffffffffffffffffffffffff03821115610279576102786101ff565b5b82820190509291505056fea26469706673582212201a8fe3ec905e3ea8c65962581ddaaef09fda1ec45a5d8d49b527bd6270fa3ccb64736f6c63430008080033",
  "devdoc": {
    "kind": "dev",
    "methods": {},
    "version": 1
  },
  "userdoc": {
    "kind": "user",
    "methods": {},
    "version": 1
  },
  "storageLayout": {
    "storage": [
      {
        "astId": 1282,
        "contract": "contracts/BoxV2.sol:BoxV2",
        "label": "value",
        "offset": 0,
        "slot": "0",
        "type": "t_uint256"
      }
    ],
    "types": {
      "t_uint256": {
        "encoding": "inplace",
        "label": "uint256",
        "numberOfBytes": "32"
      }
    }
  }
}